{
  "_format": "hh-sol-artifact-1",
  "contractName": "MyEpicNFT",
  "sourceName": "contracts/MyEpicNFT.sol",
  "abi": [
    {
      "inputs": [],
      "stateMutability": "nonpayable",
      "type": "constructor"
    },
    {
      "anonymous": false,
      "inputs": [
        {
          "indexed": true,
          "internalType": "address",
          "name": "owner",
          "type": "address"
        },
        {
          "indexed": true,
          "internalType": "address",
          "name": "approved",
          "type": "address"
        },
        {
          "indexed": true,
          "internalType": "uint256",
          "name": "tokenId",
          "type": "uint256"
        }
      ],
      "name": "Approval",
      "type": "event"
    },
    {
      "anonymous": false,
      "inputs": [
        {
          "indexed": true,
          "internalType": "address",
          "name": "owner",
          "type": "address"
        },
        {
          "indexed": true,
          "internalType": "address",
          "name": "operator",
          "type": "address"
        },
        {
          "indexed": false,
          "internalType": "bool",
          "name": "approved",
          "type": "bool"
        }
      ],
      "name": "ApprovalForAll",
      "type": "event"
    },
    {
      "anonymous": false,
      "inputs": [
        {
          "indexed": false,
          "internalType": "address",
          "name": "sender",
          "type": "address"
        },
        {
          "indexed": false,
          "internalType": "uint256",
          "name": "tokenId",
          "type": "uint256"
        }
      ],
      "name": "NewEpicNFTMinted",
      "type": "event"
    },
    {
      "anonymous": false,
      "inputs": [
        {
          "indexed": true,
          "internalType": "address",
          "name": "from",
          "type": "address"
        },
        {
          "indexed": true,
          "internalType": "address",
          "name": "to",
          "type": "address"
        },
        {
          "indexed": true,
          "internalType": "uint256",
          "name": "tokenId",
          "type": "uint256"
        }
      ],
      "name": "Transfer",
      "type": "event"
    },
    {
      "inputs": [
        {
          "internalType": "address",
          "name": "to",
          "type": "address"
        },
        {
          "internalType": "uint256",
          "name": "tokenId",
          "type": "uint256"
        }
      ],
      "name": "approve",
      "outputs": [],
      "stateMutability": "nonpayable",
      "type": "function"
    },
    {
      "inputs": [
        {
          "internalType": "address",
          "name": "owner",
          "type": "address"
        }
      ],
      "name": "balanceOf",
      "outputs": [
        {
          "internalType": "uint256",
          "name": "",
          "type": "uint256"
        }
      ],
      "stateMutability": "view",
      "type": "function"
    },
    {
      "inputs": [
        {
          "internalType": "string",
          "name": "_name",
          "type": "string"
        },
        {
          "internalType": "string",
          "name": "_description",
          "type": "string"
        },
        {
          "internalType": "string",
          "name": "_imageURI",
          "type": "string"
        }
      ],
      "name": "criarNFT",
      "outputs": [],
      "stateMutability": "nonpayable",
      "type": "function"
    },
    {
      "inputs": [
        {
          "internalType": "uint256",
          "name": "tokenId",
          "type": "uint256"
        }
      ],
      "name": "getApproved",
      "outputs": [
        {
          "internalType": "address",
          "name": "",
          "type": "address"
        }
      ],
      "stateMutability": "view",
      "type": "function"
    },
    {
      "inputs": [],
      "name": "getMaxNFTs",
      "outputs": [
        {
          "internalType": "uint256",
          "name": "",
          "type": "uint256"
        }
      ],
      "stateMutability": "view",
      "type": "function"
    },
    {
      "inputs": [],
      "name": "getNFTs",
      "outputs": [
        {
          "components": [
            {
              "internalType": "uint256",
              "name": "id",
              "type": "uint256"
            },
            {
              "internalType": "string",
              "name": "name",
              "type": "string"
            },
            {
              "internalType": "string",
              "name": "description",
              "type": "string"
            },
            {
              "internalType": "string",
              "name": "imageURI",
              "type": "string"
            }
          ],
          "internalType": "struct MyEpicNFT.NFT[]",
          "name": "",
          "type": "tuple[]"
        }
      ],
      "stateMutability": "view",
      "type": "function"
    },
    {
      "inputs": [],
      "name": "getTotalNFTsMintedSoFar",
      "outputs": [
        {
          "internalType": "uint256",
          "name": "",
          "type": "uint256"
        }
      ],
      "stateMutability": "view",
      "type": "function"
    },
    {
      "inputs": [
        {
          "internalType": "address",
          "name": "owner",
          "type": "address"
        },
        {
          "internalType": "address",
          "name": "operator",
          "type": "address"
        }
      ],
      "name": "isApprovedForAll",
      "outputs": [
        {
          "internalType": "bool",
          "name": "",
          "type": "bool"
        }
      ],
      "stateMutability": "view",
      "type": "function"
    },
    {
      "inputs": [],
      "name": "makeAnEpicNFT",
      "outputs": [],
      "stateMutability": "nonpayable",
      "type": "function"
    },
    {
      "inputs": [],
      "name": "maxNFTs",
      "outputs": [
        {
          "internalType": "uint256",
          "name": "",
          "type": "uint256"
        }
      ],
      "stateMutability": "view",
      "type": "function"
    },
    {
      "inputs": [],
      "name": "name",
      "outputs": [
        {
          "internalType": "string",
          "name": "",
          "type": "string"
        }
      ],
      "stateMutability": "view",
      "type": "function"
    },
    {
      "inputs": [
        {
          "internalType": "uint256",
          "name": "",
          "type": "uint256"
        }
      ],
      "name": "nfts",
      "outputs": [
        {
          "internalType": "uint256",
          "name": "id",
          "type": "uint256"
        },
        {
          "internalType": "string",
          "name": "name",
          "type": "string"
        },
        {
          "internalType": "string",
          "name": "description",
          "type": "string"
        },
        {
          "internalType": "string",
          "name": "imageURI",
          "type": "string"
        }
      ],
      "stateMutability": "view",
      "type": "function"
    },
    {
      "inputs": [
        {
          "internalType": "uint256",
          "name": "tokenId",
          "type": "uint256"
        }
      ],
      "name": "ownerOf",
      "outputs": [
        {
          "internalType": "address",
          "name": "",
          "type": "address"
        }
      ],
      "stateMutability": "view",
      "type": "function"
    },
    {
      "inputs": [
        {
          "internalType": "uint256",
          "name": "tokenId",
          "type": "uint256"
        }
      ],
      "name": "pickRandomFirstWord",
      "outputs": [
        {
          "internalType": "string",
          "name": "",
          "type": "string"
        }
      ],
      "stateMutability": "view",
      "type": "function"
    },
    {
      "inputs": [
        {
          "internalType": "uint256",
          "name": "tokenId",
          "type": "uint256"
        }
      ],
      "name": "pickRandomSecondWord",
      "outputs": [
        {
          "internalType": "string",
          "name": "",
          "type": "string"
        }
      ],
      "stateMutability": "view",
      "type": "function"
    },
    {
      "inputs": [
        {
          "internalType": "uint256",
          "name": "tokenId",
          "type": "uint256"
        }
      ],
      "name": "pickRandomThirdWord",
      "outputs": [
        {
          "internalType": "string",
          "name": "",
          "type": "string"
        }
      ],
      "stateMutability": "view",
      "type": "function"
    },
    {
      "inputs": [
        {
          "internalType": "address",
          "name": "from",
          "type": "address"
        },
        {
          "internalType": "address",
          "name": "to",
          "type": "address"
        },
        {
          "internalType": "uint256",
          "name": "tokenId",
          "type": "uint256"
        }
      ],
      "name": "safeTransferFrom",
      "outputs": [],
      "stateMutability": "nonpayable",
      "type": "function"
    },
    {
      "inputs": [
        {
          "internalType": "address",
          "name": "from",
          "type": "address"
        },
        {
          "internalType": "address",
          "name": "to",
          "type": "address"
        },
        {
          "internalType": "uint256",
          "name": "tokenId",
          "type": "uint256"
        },
        {
          "internalType": "bytes",
          "name": "data",
          "type": "bytes"
        }
      ],
      "name": "safeTransferFrom",
      "outputs": [],
      "stateMutability": "nonpayable",
      "type": "function"
    },
    {
      "inputs": [
        {
          "internalType": "address",
          "name": "operator",
          "type": "address"
        },
        {
          "internalType": "bool",
          "name": "approved",
          "type": "bool"
        }
      ],
      "name": "setApprovalForAll",
      "outputs": [],
      "stateMutability": "nonpayable",
      "type": "function"
    },
    {
      "inputs": [
        {
          "internalType": "bytes4",
          "name": "interfaceId",
          "type": "bytes4"
        }
      ],
      "name": "supportsInterface",
      "outputs": [
        {
          "internalType": "bool",
          "name": "",
          "type": "bool"
        }
      ],
      "stateMutability": "view",
      "type": "function"
    },
    {
      "inputs": [],
      "name": "symbol",
      "outputs": [
        {
          "internalType": "string",
          "name": "",
          "type": "string"
        }
      ],
      "stateMutability": "view",
      "type": "function"
    },
    {
      "inputs": [
        {
          "internalType": "uint256",
          "name": "tokenId",
          "type": "uint256"
        }
      ],
      "name": "tokenURI",
      "outputs": [
        {
          "internalType": "string",
          "name": "",
          "type": "string"
        }
      ],
      "stateMutability": "view",
      "type": "function"
    },
    {
      "inputs": [],
      "name": "totalNFTsMintedSoFar",
      "outputs": [
        {
          "internalType": "uint256",
          "name": "",
          "type": "uint256"
        }
      ],
      "stateMutability": "view",
      "type": "function"
    },
    {
      "inputs": [
        {
          "internalType": "address",
          "name": "from",
          "type": "address"
        },
        {
          "internalType": "address",
          "name": "to",
          "type": "address"
        },
        {
          "internalType": "uint256",
          "name": "tokenId",
          "type": "uint256"
        }
      ],
      "name": "transferFrom",
      "outputs": [],
      "stateMutability": "nonpayable",
      "type": "function"
    }
  ],
  "bytecode": "0x608060405260326007556000600855604051806102e001604052806102b6815260200162004caf6102b69139600b908051906020019062000042929190620006eb565b506040518060c001604052806040518060400160405280600581526020017f536569796100000000000000000000000000000000000000000000000000000081525081526020016040518060400160405280600681526020017f536869727975000000000000000000000000000000000000000000000000000081525081526020016040518060400160405280600581526020017f48796f676100000000000000000000000000000000000000000000000000000081525081526020016040518060400160405280600481526020017f496b6b690000000000000000000000000000000000000000000000000000000081525081526020016040518060400160405280600681526020017f417468656e61000000000000000000000000000000000000000000000000000081525081526020016040518060400160405280600581526020017f53616f7269000000000000000000000000000000000000000000000000000000815250815250600c906006620001c09291906200077c565b506040518060c001604052806040518060400160405280600481526020017f5368756e0000000000000000000000000000000000000000000000000000000081525081526020016040518060400160405280600481526020017f4a6162750000000000000000000000000000000000000000000000000000000081525081526020016040518060400160405280600481526020017f496368690000000000000000000000000000000000000000000000000000000081525081526020016040518060400160405280600581526020017f4e6163686900000000000000000000000000000000000000000000000000000081525081526020016040518060400160405280600481526020017f47656b690000000000000000000000000000000000000000000000000000000081525081526020016040518060400160405280600381526020017f42616e0000000000000000000000000000000000000000000000000000000000815250815250600d9060066200033e9291906200077c565b506040518060c001604052806040518060400160405280600481526020017f4d696d650000000000000000000000000000000000000000000000000000000081525081526020016040518060400160405280600881526020017f446f63726174657300000000000000000000000000000000000000000000000081525081526020016040518060400160405280600681526020017f41696f6c6961000000000000000000000000000000000000000000000000000081525081526020016040518060400160405280600581526020017f5368616b6100000000000000000000000000000000000000000000000000000081525081526020016040518060400160405280600481526020017f4d696c6f0000000000000000000000000000000000000000000000000000000081525081526020016040518060400160405280600581526020017f43616d7573000000000000000000000000000000000000000000000000000000815250815250600e906006620004bc9291906200077c565b50348015620004ca57600080fd5b506040518060400160405280600981526020017f4368617665734e465400000000000000000000000000000000000000000000008152506040518060400160405280600581526020017f434841564f00000000000000000000000000000000000000000000000000000081525081600090805190602001906200054f929190620006eb565b50806001908051906020019062000568929190620006eb565b50505060075460085410620005b4576040517f08c379a0000000000000000000000000000000000000000000000000000000008152600401620005ab90620008fc565b60405180910390fd5b620005ff6040518060400160405280601c81526020017f4d657520636f6e747261746f206465204e46542120546368752d6875000000008152506200061f60201b6200161d1760201c565b600860008154809291906200061490620009b0565b919050555062000abc565b620006bf81604051602401620006369190620008d8565b6040516020818303038152906040527f41304fac000000000000000000000000000000000000000000000000000000007bffffffffffffffffffffffffffffffffffffffffffffffffffffffff19166020820180517bffffffffffffffffffffffffffffffffffffffffffffffffffffffff8381831617835250505050620006c260201b60201c565b50565b60008151905060006a636f6e736f6c652e6c6f679050602083016000808483855afa5050505050565b828054620006f9906200097a565b90600052602060002090601f0160209004810192826200071d576000855562000769565b82601f106200073857805160ff191683800117855562000769565b8280016001018555821562000769579182015b82811115620007685782518255916020019190600101906200074b565b5b509050620007789190620007e3565b5090565b828054828255906000526020600020908101928215620007d0579160200282015b82811115620007cf578251829080519060200190620007be929190620006eb565b50916020019190600101906200079d565b5b509050620007df919062000802565b5090565b5b80821115620007fe576000816000905550600101620007e4565b5090565b5b808211156200082657600081816200081c91906200082a565b5060010162000803565b5090565b50805462000838906200097a565b6000825580601f106200084c57506200086d565b601f0160209004906000526020600020908101906200086c9190620007e3565b5b50565b60006200087d826200091e565b62000889818562000929565b93506200089b81856020860162000944565b620008a68162000a5c565b840191505092915050565b6000620008c060248362000929565b9150620008cd8262000a6d565b604082019050919050565b60006020820190508181036000830152620008f4818462000870565b905092915050565b600060208201905081810360008301526200091781620008b1565b9050919050565b600081519050919050565b600082825260208201905092915050565b6000819050919050565b60005b838110156200096457808201518184015260208101905062000947565b8381111562000974576000848401525b50505050565b600060028204905060018216806200099357607f821691505b60208210811415620009aa57620009a962000a2d565b5b50919050565b6000620009bd826200093a565b91507fffffffffffffffffffffffffffffffffffffffffffffffffffffffffffffffff821415620009f357620009f2620009fe565b5b600182019050919050565b7f4e487b7100000000000000000000000000000000000000000000000000000000600052601160045260246000fd5b7f4e487b7100000000000000000000000000000000000000000000000000000000600052602260045260246000fd5b6000601f19601f8301169050919050565b7f4e756d65726f206d6178696d6f206465204e465473206a6120666f692063756e60008201527f6861646f00000000000000000000000000000000000000000000000000000000602082015250565b6141e38062000acc6000396000f3fe608060405234801561001057600080fd5b50600436106101585760003560e01c80636352211e116100c3578063c575757a1161007c578063c575757a146103ee578063c87b56dd1461041e578063de9d132f1461044e578063e2e53b8114610458578063e3d43b1f14610476578063e985e9c51461049457610158565b80636352211e1461030857806370a082311461033857806395d89b4114610368578063a22cb46514610386578063b187301f146103a2578063b88d4fde146103d257610158565b806323b872dd1161011557806323b872dd14610233578063265aa6211461024f5780632de38d68146102825780632e9d092f146102b257806342842e0e146102ce5780634e9e1ec6146102ea57610158565b806301ffc9a71461015d578063060475901461018d57806306fdde03146101ab578063081812fc146101c9578063095ea7b3146101f9578063227212f214610215575b600080fd5b61017760048036038101906101729190612d0d565b6104c4565b6040516101849190613586565b60405180910390f35b6101956105a6565b6040516101a29190613781565b60405180910390f35b6101b36105b0565b6040516101c091906135a1565b60405180910390f35b6101e360048036038101906101de9190612df6565b610642565b6040516101f091906134d4565b60405180910390f35b610213600480360381019061020e9190612cd1565b610688565b005b61021d6107a0565b60405161022a9190613564565b60405180910390f35b61024d60048036038101906102489190612bcb565b6109bf565b005b61026960048036038101906102649190612df6565b610a1f565b604051610279949392919061379c565b60405180910390f35b61029c60048036038101906102979190612df6565b610bf7565b6040516102a991906135a1565b60405180910390f35b6102cc60048036038101906102c79190612d5f565b610d15565b005b6102e860048036038101906102e39190612bcb565b610dd4565b005b6102f2610df4565b6040516102ff9190613781565b60405180910390f35b610322600480360381019061031d9190612df6565b610dfa565b60405161032f91906134d4565b60405180910390f35b610352600480360381019061034d9190612b66565b610e81565b60405161035f9190613781565b60405180910390f35b610370610f39565b60405161037d91906135a1565b60405180910390f35b6103a0600480360381019061039b9190612c95565b610fcb565b005b6103bc60048036038101906103b79190612df6565b610fe1565b6040516103c991906135a1565b60405180910390f35b6103ec60048036038101906103e79190612c1a565b6110ff565b005b61040860048036038101906104039190612df6565b611161565b60405161041591906135a1565b60405180910390f35b61043860048036038101906104339190612df6565b61127f565b60405161044591906135a1565b60405180910390f35b610456611392565b005b610460611579565b60405161046d9190613781565b60405180910390f35b61047e61157f565b60405161048b9190613781565b60405180910390f35b6104ae60048036038101906104a99190612b8f565b611589565b6040516104bb9190613586565b60405180910390f35b60007f80ac58cd000000000000000000000000000000000000000000000000000000007bffffffffffffffffffffffffffffffffffffffffffffffffffffffff1916827bffffffffffffffffffffffffffffffffffffffffffffffffffffffff1916148061058f57507f5b5e139f000000000000000000000000000000000000000000000000000000007bffffffffffffffffffffffffffffffffffffffffffffffffffffffff1916827bffffffffffffffffffffffffffffffffffffffffffffffffffffffff1916145b8061059f575061059e826116b6565b5b9050919050565b6000600854905090565b6060600080546105bf90613ab6565b80601f01602080910402602001604051908101604052809291908181526020018280546105eb90613ab6565b80156106385780601f1061060d57610100808354040283529160200191610638565b820191906000526020600020905b81548152906001019060200180831161061b57829003601f168201915b5050505050905090565b600061064d82611720565b6004600083815260200190815260200160002060009054906101000a900473ffffffffffffffffffffffffffffffffffffffff169050919050565b600061069382610dfa565b90508073ffffffffffffffffffffffffffffffffffffffff168373ffffffffffffffffffffffffffffffffffffffff161415610704576040517f08c379a00000000000000000000000000000000000000000000000000000000081526004016106fb90613741565b60405180910390fd5b8073ffffffffffffffffffffffffffffffffffffffff1661072361176b565b73ffffffffffffffffffffffffffffffffffffffff16148061075257506107518161074c61176b565b611589565b5b610791576040517f08c379a000000000000000000000000000000000000000000000000000000000815260040161078890613761565b60405180910390fd5b61079b8383611773565b505050565b60606009805480602002602001604051908101604052809291908181526020016000905b828210156109b657838290600052602060002090600402016040518060800160405290816000820154815260200160018201805461080190613ab6565b80601f016020809104026020016040519081016040528092919081815260200182805461082d90613ab6565b801561087a5780601f1061084f5761010080835404028352916020019161087a565b820191906000526020600020905b81548152906001019060200180831161085d57829003601f168201915b5050505050815260200160028201805461089390613ab6565b80601f01602080910402602001604051908101604052809291908181526020018280546108bf90613ab6565b801561090c5780601f106108e15761010080835404028352916020019161090c565b820191906000526020600020905b8154815290600101906020018083116108ef57829003601f168201915b5050505050815260200160038201805461092590613ab6565b80601f016020809104026020016040519081016040528092919081815260200182805461095190613ab6565b801561099e5780601f106109735761010080835404028352916020019161099e565b820191906000526020600020905b81548152906001019060200180831161098157829003601f168201915b505050505081525050815260200190600101906107c4565b50505050905090565b6109d06109ca61176b565b8261182c565b610a0f576040517f08c379a0000000000000000000000000000000000000000000000000000000008152600401610a0690613601565b60405180910390fd5b610a1a8383836118c1565b505050565b60098181548110610a2f57600080fd5b9060005260206000209060040201600091509050806000015490806001018054610a5890613ab6565b80601f0160208091040260200160405190810160405280929190818152602001828054610a8490613ab6565b8015610ad15780601f10610aa657610100808354040283529160200191610ad1565b820191906000526020600020905b815481529060010190602001808311610ab457829003601f168201915b505050505090806002018054610ae690613ab6565b80601f0160208091040260200160405190810160405280929190818152602001828054610b1290613ab6565b8015610b5f5780601f10610b3457610100808354040283529160200191610b5f565b820191906000526020600020905b815481529060010190602001808311610b4257829003601f168201915b505050505090806003018054610b7490613ab6565b80601f0160208091040260200160405190810160405280929190818152602001828054610ba090613ab6565b8015610bed5780601f10610bc257610100808354040283529160200191610bed565b820191906000526020600020905b815481529060010190602001808311610bd057829003601f168201915b5050505050905084565b60606000610c2b610c0784611bbb565b604051602001610c179190613429565b604051602081830303815290604052611cdf565b9050600c8054905081610c3e9190613b19565b9050600c8181548110610c7a577f4e487b7100000000000000000000000000000000000000000000000000000000600052603260045260246000fd5b906000526020600020018054610c8f90613ab6565b80601f0160208091040260200160405190810160405280929190818152602001828054610cbb90613ab6565b8015610d085780601f10610cdd57610100808354040283529160200191610d08565b820191906000526020600020905b815481529060010190602001808311610ceb57829003601f168201915b5050505050915050919050565b6000600980549050905060096040518060800160405280838152602001868152602001858152602001848152509080600181540180825580915050600190039060005260206000209060040201600090919091909150600082015181600001556020820151816001019080519060200190610d9192919061298a565b506040820151816002019080519060200190610dae92919061298a565b506060820151816003019080519060200190610dcb92919061298a565b50505050505050565b610def838383604051806020016040528060008152506110ff565b505050565b60075481565b600080610e0683611d12565b9050600073ffffffffffffffffffffffffffffffffffffffff168173ffffffffffffffffffffffffffffffffffffffff161415610e78576040517f08c379a0000000000000000000000000000000000000000000000000000000008152600401610e6f90613721565b60405180910390fd5b80915050919050565b60008073ffffffffffffffffffffffffffffffffffffffff168273ffffffffffffffffffffffffffffffffffffffff161415610ef2576040517f08c379a0000000000000000000000000000000000000000000000000000000008152600401610ee9906136c1565b60405180910390fd5b600360008373ffffffffffffffffffffffffffffffffffffffff1673ffffffffffffffffffffffffffffffffffffffff168152602001908152602001600020549050919050565b606060018054610f4890613ab6565b80601f0160208091040260200160405190810160405280929190818152602001828054610f7490613ab6565b8015610fc15780601f10610f9657610100808354040283529160200191610fc1565b820191906000526020600020905b815481529060010190602001808311610fa457829003601f168201915b5050505050905090565b610fdd610fd661176b565b8383611d4f565b5050565b60606000611015610ff184611bbb565b6040516020016110019190613407565b604051602081830303815290604052611cdf565b9050600d80549050816110289190613b19565b9050600d8181548110611064577f4e487b7100000000000000000000000000000000000000000000000000000000600052603260045260246000fd5b90600052602060002001805461107990613ab6565b80601f01602080910402602001604051908101604052809291908181526020018280546110a590613ab6565b80156110f25780601f106110c7576101008083540402835291602001916110f2565b820191906000526020600020905b8154815290600101906020018083116110d557829003601f168201915b5050505050915050919050565b61111061110a61176b565b8361182c565b61114f576040517f08c379a000000000000000000000000000000000000000000000000000000000815260040161114690613601565b60405180910390fd5b61115b84848484611ebc565b50505050565b6060600061119561117184611bbb565b604051602001611181919061344b565b604051602081830303815290604052611cdf565b9050600e80549050816111a89190613b19565b9050600e81815481106111e4577f4e487b7100000000000000000000000000000000000000000000000000000000600052603260045260246000fd5b9060005260206000200180546111f990613ab6565b80601f016020809104026020016040519081016040528092919081815260200182805461122590613ab6565b80156112725780601f1061124757610100808354040283529160200191611272565b820191906000526020600020905b81548152906001019060200180831161125557829003601f168201915b5050505050915050919050565b606061128a82611720565b60006006600084815260200190815260200160002080546112aa90613ab6565b80601f01602080910402602001604051908101604052809291908181526020018280546112d690613ab6565b80156113235780601f106112f857610100808354040283529160200191611323565b820191906000526020600020905b81548152906001019060200180831161130657829003601f168201915b505050505090506000611334611f18565b905060008151141561134a57819250505061138d565b60008251111561137f578082604051602001611367929190613383565b6040516020818303038152906040529250505061138d565b61138884611f2f565b925050505b919050565b600061139e600a611f97565b905060006113ab82610bf7565b905060006113b883610fe1565b905060006113c584611161565b905060008383836040516020016113de939291906133a7565b60405160208183030381529060405290506000600b826040516020016114059291906133d8565b6040516020818303038152906040529050600061144a8361142584611fa5565b60405160200161143692919061346d565b604051602081830303815290604052611fa5565b905060008160405160200161145f91906134b2565b60405160208183030381529060405290506114ae6040518060400160405280601581526020017f0a2d2d2d2d2d2d2d2d2d2d2d2d2d2d2d2d2d2d2d2d000000000000000000000081525061161d565b6114b78161161d565b6114f56040518060400160405280601581526020017f2d2d2d2d2d2d2d2d2d2d2d2d2d2d2d2d2d2d2d2d0a000000000000000000000081525061161d565b6114ff3389612163565b6115098882612181565b611513600a6121f5565b61153660405180606001604052806024815260200161414a60249139893361220b565b7febb98688741ffa4c7589bf325de30cf7becb63de567842e1ccdb6cb949fdc82c338960405161156792919061353b565b60405180910390a15050505050505050565b60085481565b6000600754905090565b6000600560008473ffffffffffffffffffffffffffffffffffffffff1673ffffffffffffffffffffffffffffffffffffffff16815260200190815260200160002060008373ffffffffffffffffffffffffffffffffffffffff1673ffffffffffffffffffffffffffffffffffffffff16815260200190815260200160002060009054906101000a900460ff16905092915050565b6116b38160405160240161163191906135a1565b6040516020818303038152906040527f41304fac000000000000000000000000000000000000000000000000000000007bffffffffffffffffffffffffffffffffffffffffffffffffffffffff19166020820180517bffffffffffffffffffffffffffffffffffffffffffffffffffffffff83818316178352505050506122aa565b50565b60007f01ffc9a7000000000000000000000000000000000000000000000000000000007bffffffffffffffffffffffffffffffffffffffffffffffffffffffff1916827bffffffffffffffffffffffffffffffffffffffffffffffffffffffff1916149050919050565b611729816122d3565b611768576040517f08c379a000000000000000000000000000000000000000000000000000000000815260040161175f90613721565b60405180910390fd5b50565b600033905090565b816004600083815260200190815260200160002060006101000a81548173ffffffffffffffffffffffffffffffffffffffff021916908373ffffffffffffffffffffffffffffffffffffffff160217905550808273ffffffffffffffffffffffffffffffffffffffff166117e683610dfa565b73ffffffffffffffffffffffffffffffffffffffff167f8c5be1e5ebec7d5bd14f71427d1e84f3dd0314c0f7b2291e5b200ac8c7c3b92560405160405180910390a45050565b60008061183883610dfa565b90508073ffffffffffffffffffffffffffffffffffffffff168473ffffffffffffffffffffffffffffffffffffffff16148061187a57506118798185611589565b5b806118b857508373ffffffffffffffffffffffffffffffffffffffff166118a084610642565b73ffffffffffffffffffffffffffffffffffffffff16145b91505092915050565b8273ffffffffffffffffffffffffffffffffffffffff166118e182610dfa565b73ffffffffffffffffffffffffffffffffffffffff1614611937576040517f08c379a000000000000000000000000000000000000000000000000000000000815260040161192e90613641565b60405180910390fd5b600073ffffffffffffffffffffffffffffffffffffffff168273ffffffffffffffffffffffffffffffffffffffff1614156119a7576040517f08c379a000000000000000000000000000000000000000000000000000000000815260040161199e90613681565b60405180910390fd5b6119b48383836001612314565b8273ffffffffffffffffffffffffffffffffffffffff166119d482610dfa565b73ffffffffffffffffffffffffffffffffffffffff1614611a2a576040517f08c379a0000000000000000000000000000000000000000000000000000000008152600401611a2190613641565b60405180910390fd5b6004600082815260200190815260200160002060006101000a81549073ffffffffffffffffffffffffffffffffffffffff02191690556001600360008573ffffffffffffffffffffffffffffffffffffffff1673ffffffffffffffffffffffffffffffffffffffff168152602001908152602001600020600082825403925050819055506001600360008473ffffffffffffffffffffffffffffffffffffffff1673ffffffffffffffffffffffffffffffffffffffff16815260200190815260200160002060008282540192505081905550816002600083815260200190815260200160002060006101000a81548173ffffffffffffffffffffffffffffffffffffffff021916908373ffffffffffffffffffffffffffffffffffffffff160217905550808273ffffffffffffffffffffffffffffffffffffffff168473ffffffffffffffffffffffffffffffffffffffff167fddf252ad1be2c89b69c2b068fc378daa952ba7f163c4a11628f55a4df523b3ef60405160405180910390a4611bb6838383600161231a565b505050565b606060006001611bca84612320565b01905060008167ffffffffffffffff811115611c0f577f4e487b7100000000000000000000000000000000000000000000000000000000600052604160045260246000fd5b6040519080825280601f01601f191660200182016040528015611c415781602001600182028036833780820191505090505b509050600082602001820190505b600115611cd4578080600190039150507f3031323334353637383961626364656600000000000000000000000000000000600a86061a8153600a8581611cbe577f4e487b7100000000000000000000000000000000000000000000000000000000600052601260045260246000fd5b0494506000851415611ccf57611cd4565b611c4f565b819350505050919050565b600081604051602001611cf2919061336c565b6040516020818303038152906040528051906020012060001c9050919050565b60006002600083815260200190815260200160002060009054906101000a900473ffffffffffffffffffffffffffffffffffffffff169050919050565b8173ffffffffffffffffffffffffffffffffffffffff168373ffffffffffffffffffffffffffffffffffffffff161415611dbe576040517f08c379a0000000000000000000000000000000000000000000000000000000008152600401611db5906136a1565b60405180910390fd5b80600560008573ffffffffffffffffffffffffffffffffffffffff1673ffffffffffffffffffffffffffffffffffffffff16815260200190815260200160002060008473ffffffffffffffffffffffffffffffffffffffff1673ffffffffffffffffffffffffffffffffffffffff16815260200190815260200160002060006101000a81548160ff0219169083151502179055508173ffffffffffffffffffffffffffffffffffffffff168373ffffffffffffffffffffffffffffffffffffffff167f17307eab39ab6107e8899845ad3d59bd9653f200f220920489ca2b5937696c3183604051611eaf9190613586565b60405180910390a3505050565b611ec78484846118c1565b611ed384848484612557565b611f12576040517f08c379a0000000000000000000000000000000000000000000000000000000008152600401611f0990613621565b60405180910390fd5b50505050565b606060405180602001604052806000815250905090565b6060611f3a82611720565b6000611f44611f18565b90506000815111611f645760405180602001604052806000815250611f8f565b80611f6e84611bbb565b604051602001611f7f929190613383565b6040516020818303038152906040525b915050919050565b600081600001549050919050565b60606000825190506000811415611fce576040518060200160405280600081525091505061215e565b60006003600283611fdf919061391f565b611fe99190613975565b6004611ff591906139a6565b90506000602082612006919061391f565b67ffffffffffffffff811115612045577f4e487b7100000000000000000000000000000000000000000000000000000000600052604160045260246000fd5b6040519080825280601f01601f1916602001820160405280156120775781602001600182028036833780820191505090505b509050600060405180606001604052806040815260200161416e604091399050600181016020830160005b8681101561211b5760038101905062ffffff818a015116603f8160121c168401518060081b905060ff603f83600c1c1686015116810190508060081b905060ff603f8360061c1686015116810190508060081b905060ff603f831686015116810190508060e01b905080845260048401935050506120a2565b506003860660018114612135576002811461214557612150565b613d3d60f01b6002830352612150565b603d60f81b60018303525b508484525050819450505050505b919050565b61217d8282604051806020016040528060008152506126ee565b5050565b61218a826122d3565b6121c9576040517f08c379a00000000000000000000000000000000000000000000000000000000081526004016121c0906136e1565b60405180910390fd5b806006600084815260200190815260200160002090805190602001906121f092919061298a565b505050565b6001816000016000828254019250508190555050565b6122a5838383604051602401612223939291906135c3565b6040516020818303038152906040527fe3849f79000000000000000000000000000000000000000000000000000000007bffffffffffffffffffffffffffffffffffffffffffffffffffffffff19166020820180517bffffffffffffffffffffffffffffffffffffffffffffffffffffffff83818316178352505050506122aa565b505050565b60008151905060006a636f6e736f6c652e6c6f679050602083016000808483855afa5050505050565b60008073ffffffffffffffffffffffffffffffffffffffff166122f583611d12565b73ffffffffffffffffffffffffffffffffffffffff1614159050919050565b50505050565b50505050565b600080600090507a184f03e93ff9f4daa797ed6e38ed64bf6a1f01000000000000000083106123a4577a184f03e93ff9f4daa797ed6e38ed64bf6a1f010000000000000000838161239a577f4e487b7100000000000000000000000000000000000000000000000000000000600052601260045260246000fd5b0492506040810190505b6d04ee2d6d415b85acef81000000008310612407576d04ee2d6d415b85acef810000000083816123fd577f4e487b7100000000000000000000000000000000000000000000000000000000600052601260045260246000fd5b0492506020810190505b662386f26fc10000831061245c57662386f26fc100008381612452577f4e487b7100000000000000000000000000000000000000000000000000000000600052601260045260246000fd5b0492506010810190505b6305f5e10083106124ab576305f5e10083816124a1577f4e487b7100000000000000000000000000000000000000000000000000000000600052601260045260246000fd5b0492506008810190505b61271083106124f65761271083816124ec577f4e487b7100000000000000000000000000000000000000000000000000000000600052601260045260246000fd5b0492506004810190505b6064831061253f5760648381612535577f4e487b7100000000000000000000000000000000000000000000000000000000600052601260045260246000fd5b0492506002810190505b600a831061254e576001810190505b80915050919050565b60006125788473ffffffffffffffffffffffffffffffffffffffff16612749565b156126e1578373ffffffffffffffffffffffffffffffffffffffff1663150b7a026125a161176b565b8786866040518563ffffffff1660e01b81526004016125c394939291906134ef565b602060405180830381600087803b1580156125dd57600080fd5b505af192505050801561260e57506040513d601f19601f8201168201806040525081019061260b9190612d36565b60015b612691573d806000811461263e576040519150601f19603f3d011682016040523d82523d6000602084013e612643565b606091505b50600081511415612689576040517f08c379a000000000000000000000000000000000000000000000000000000000815260040161268090613621565b60405180910390fd5b805181602001fd5b63150b7a0260e01b7bffffffffffffffffffffffffffffffffffffffffffffffffffffffff1916817bffffffffffffffffffffffffffffffffffffffffffffffffffffffff1916149150506126e6565b600190505b949350505050565b6126f8838361276c565b6127056000848484612557565b612744576040517f08c379a000000000000000000000000000000000000000000000000000000000815260040161273b90613621565b60405180910390fd5b505050565b6000808273ffffffffffffffffffffffffffffffffffffffff163b119050919050565b600073ffffffffffffffffffffffffffffffffffffffff168273ffffffffffffffffffffffffffffffffffffffff1614156127dc576040517f08c379a00000000000000000000000000000000000000000000000000000000081526004016127d390613701565b60405180910390fd5b6127e5816122d3565b15612825576040517f08c379a000000000000000000000000000000000000000000000000000000000815260040161281c90613661565b60405180910390fd5b612833600083836001612314565b61283c816122d3565b1561287c576040517f08c379a000000000000000000000000000000000000000000000000000000000815260040161287390613661565b60405180910390fd5b6001600360008473ffffffffffffffffffffffffffffffffffffffff1673ffffffffffffffffffffffffffffffffffffffff16815260200190815260200160002060008282540192505081905550816002600083815260200190815260200160002060006101000a81548173ffffffffffffffffffffffffffffffffffffffff021916908373ffffffffffffffffffffffffffffffffffffffff160217905550808273ffffffffffffffffffffffffffffffffffffffff16600073ffffffffffffffffffffffffffffffffffffffff167fddf252ad1be2c89b69c2b068fc378daa952ba7f163c4a11628f55a4df523b3ef60405160405180910390a461298660008383600161231a565b5050565b82805461299690613ab6565b90600052602060002090601f0160209004810192826129b857600085556129ff565b82601f106129d157805160ff19168380011785556129ff565b828001600101855582156129ff579182015b828111156129fe5782518255916020019190600101906129e3565b5b509050612a0c9190612a10565b5090565b5b80821115612a29576000816000905550600101612a11565b5090565b6000612a40612a3b8461381b565b6137f6565b905082815260208101848484011115612a5857600080fd5b612a63848285613a74565b509392505050565b6000612a7e612a798461384c565b6137f6565b905082815260208101848484011115612a9657600080fd5b612aa1848285613a74565b509392505050565b600081359050612ab8816140ed565b92915050565b600081359050612acd81614104565b92915050565b600081359050612ae28161411b565b92915050565b600081519050612af78161411b565b92915050565b600082601f830112612b0e57600080fd5b8135612b1e848260208601612a2d565b91505092915050565b600082601f830112612b3857600080fd5b8135612b48848260208601612a6b565b91505092915050565b600081359050612b6081614132565b92915050565b600060208284031215612b7857600080fd5b6000612b8684828501612aa9565b91505092915050565b60008060408385031215612ba257600080fd5b6000612bb085828601612aa9565b9250506020612bc185828601612aa9565b9150509250929050565b600080600060608486031215612be057600080fd5b6000612bee86828701612aa9565b9350506020612bff86828701612aa9565b9250506040612c1086828701612b51565b9150509250925092565b60008060008060808587031215612c3057600080fd5b6000612c3e87828801612aa9565b9450506020612c4f87828801612aa9565b9350506040612c6087828801612b51565b925050606085013567ffffffffffffffff811115612c7d57600080fd5b612c8987828801612afd565b91505092959194509250565b60008060408385031215612ca857600080fd5b6000612cb685828601612aa9565b9250506020612cc785828601612abe565b9150509250929050565b60008060408385031215612ce457600080fd5b6000612cf285828601612aa9565b9250506020612d0385828601612b51565b9150509250929050565b600060208284031215612d1f57600080fd5b6000612d2d84828501612ad3565b91505092915050565b600060208284031215612d4857600080fd5b6000612d5684828501612ae8565b91505092915050565b600080600060608486031215612d7457600080fd5b600084013567ffffffffffffffff811115612d8e57600080fd5b612d9a86828701612b27565b935050602084013567ffffffffffffffff811115612db757600080fd5b612dc386828701612b27565b925050604084013567ffffffffffffffff811115612de057600080fd5b612dec86828701612b27565b9150509250925092565b600060208284031215612e0857600080fd5b6000612e1684828501612b51565b91505092915050565b6000612e2b83836132dd565b905092915050565b612e3c81613a00565b82525050565b6000612e4d826138a2565b612e5781856138d0565b935083602082028501612e698561387d565b8060005b85811015612ea55784840389528151612e868582612e1f565b9450612e91836138c3565b925060208a01995050600181019050612e6d565b50829750879550505050505092915050565b612ec081613a12565b82525050565b6000612ed1826138ad565b612edb81856138e1565b9350612eeb818560208601613a83565b612ef481613c06565b840191505092915050565b6000612f0a826138b8565b612f1481856138f2565b9350612f24818560208601613a83565b612f2d81613c06565b840191505092915050565b6000612f43826138b8565b612f4d8185613903565b9350612f5d818560208601613a83565b612f6681613c06565b840191505092915050565b6000612f7c826138b8565b612f868185613914565b9350612f96818560208601613a83565b80840191505092915050565b60008154612faf81613ab6565b612fb98186613914565b94506001821660008114612fd45760018114612fe557613018565b60ff19831686528186019350613018565b612fee8561388d565b60005b8381101561301057815481890152600182019150602081019050612ff1565b838801955050505b50505092915050565b600061302e602d83613903565b915061303982613c17565b604082019050919050565b6000613051603283613903565b915061305c82613c66565b604082019050919050565b6000613074602583613903565b915061307f82613cb5565b604082019050919050565b6000613097601c83613903565b91506130a282613d04565b602082019050919050565b60006130ba602483613903565b91506130c582613d2d565b604082019050919050565b60006130dd601983613903565b91506130e882613d7c565b602082019050919050565b6000613100600f83613914565b915061310b82613da5565b600f82019050919050565b6000613123600d83613914565b915061312e82613dce565b600d82019050919050565b6000613146602983613903565b915061315182613df7565b604082019050919050565b6000613169601083613914565b915061317482613e46565b601082019050919050565b600061318c602e83613903565b915061319782613e6f565b604082019050919050565b60006131af600283613914565b91506131ba82613ebe565b600282019050919050565b60006131d2602083613903565b91506131dd82613ee7565b602082019050919050565b60006131f5601083613914565b915061320082613f10565b601082019050919050565b6000613218600a83613914565b915061322382613f39565b600a82019050919050565b600061323b601883613903565b915061324682613f62565b602082019050919050565b600061325e602183613903565b915061326982613f8b565b604082019050919050565b6000613281601d83613914565b915061328c82613fda565b601d82019050919050565b60006132a4603d83613903565b91506132af82614003565b604082019050919050565b60006132c7606d83613914565b91506132d282614052565b606d82019050919050565b60006080830160008301516132f5600086018261334e565b506020830151848203602086015261330d8282612eff565b915050604083015184820360408601526133278282612eff565b915050606083015184820360608601526133418282612eff565b9150508091505092915050565b61335781613a6a565b82525050565b61336681613a6a565b82525050565b60006133788284612f71565b915081905092915050565b600061338f8285612f71565b915061339b8284612f71565b91508190509392505050565b60006133b38286612f71565b91506133bf8285612f71565b91506133cb8284612f71565b9150819050949350505050565b60006133e48285612fa2565b91506133f08284612f71565b91506133fb82613116565b91508190509392505050565b6000613412826130f3565b915061341e8284612f71565b915081905092915050565b60006134348261315c565b91506134408284612f71565b915081905092915050565b6000613456826131e8565b91506134628284612f71565b915081905092915050565b60006134788261320b565b91506134848285612f71565b915061348f826132ba565b915061349b8284612f71565b91506134a6826131a2565b91508190509392505050565b60006134bd82613274565b91506134c98284612f71565b915081905092915050565b60006020820190506134e96000830184612e33565b92915050565b60006080820190506135046000830187612e33565b6135116020830186612e33565b61351e604083018561335d565b81810360608301526135308184612ec6565b905095945050505050565b60006040820190506135506000830185612e33565b61355d602083018461335d565b9392505050565b6000602082019050818103600083015261357e8184612e42565b905092915050565b600060208201905061359b6000830184612eb7565b92915050565b600060208201905081810360008301526135bb8184612f38565b905092915050565b600060608201905081810360008301526135dd8186612f38565b90506135ec602083018561335d565b6135f96040830184612e33565b949350505050565b6000602082019050818103600083015261361a81613021565b9050919050565b6000602082019050818103600083015261363a81613044565b9050919050565b6000602082019050818103600083015261365a81613067565b9050919050565b6000602082019050818103600083015261367a8161308a565b9050919050565b6000602082019050818103600083015261369a816130ad565b9050919050565b600060208201905081810360008301526136ba816130d0565b9050919050565b600060208201905081810360008301526136da81613139565b9050919050565b600060208201905081810360008301526136fa8161317f565b9050919050565b6000602082019050818103600083015261371a816131c5565b9050919050565b6000602082019050818103600083015261373a8161322e565b9050919050565b6000602082019050818103600083015261375a81613251565b9050919050565b6000602082019050818103600083015261377a81613297565b9050919050565b6000602082019050613796600083018461335d565b92915050565b60006080820190506137b1600083018761335d565b81810360208301526137c38186612f38565b905081810360408301526137d78185612f38565b905081810360608301526137eb8184612f38565b905095945050505050565b6000613800613811565b905061380c8282613ae8565b919050565b6000604051905090565b600067ffffffffffffffff82111561383657613835613bd7565b5b61383f82613c06565b9050602081019050919050565b600067ffffffffffffffff82111561386757613866613bd7565b5b61387082613c06565b9050602081019050919050565b6000819050602082019050919050565b60008190508160005260206000209050919050565b600081519050919050565b600081519050919050565b600081519050919050565b6000602082019050919050565b600082825260208201905092915050565b600082825260208201905092915050565b600082825260208201905092915050565b600082825260208201905092915050565b600081905092915050565b600061392a82613a6a565b915061393583613a6a565b9250827fffffffffffffffffffffffffffffffffffffffffffffffffffffffffffffffff0382111561396a57613969613b4a565b5b828201905092915050565b600061398082613a6a565b915061398b83613a6a565b92508261399b5761399a613b79565b5b828204905092915050565b60006139b182613a6a565b91506139bc83613a6a565b9250817fffffffffffffffffffffffffffffffffffffffffffffffffffffffffffffffff04831182151516156139f5576139f4613b4a565b5b828202905092915050565b6000613a0b82613a4a565b9050919050565b60008115159050919050565b60007fffffffff0000000000000000000000000000000000000000000000000000000082169050919050565b600073ffffffffffffffffffffffffffffffffffffffff82169050919050565b6000819050919050565b82818337600083830152505050565b60005b83811015613aa1578082015181840152602081019050613a86565b83811115613ab0576000848401525b50505050565b60006002820490506001821680613ace57607f821691505b60208210811415613ae257613ae1613ba8565b5b50919050565b613af182613c06565b810181811067ffffffffffffffff82111715613b1057613b0f613bd7565b5b80604052505050565b6000613b2482613a6a565b9150613b2f83613a6a565b925082613b3f57613b3e613b79565b5b828206905092915050565b7f4e487b7100000000000000000000000000000000000000000000000000000000600052601160045260246000fd5b7f4e487b7100000000000000000000000000000000000000000000000000000000600052601260045260246000fd5b7f4e487b7100000000000000000000000000000000000000000000000000000000600052602260045260246000fd5b7f4e487b7100000000000000000000000000000000000000000000000000000000600052604160045260246000fd5b6000601f19601f8301169050919050565b7f4552433732313a2063616c6c6572206973206e6f7420746f6b656e206f776e6560008201527f72206f7220617070726f76656400000000000000000000000000000000000000602082015250565b7f4552433732313a207472616e7366657220746f206e6f6e20455243373231526560008201527f63656976657220696d706c656d656e7465720000000000000000000000000000602082015250565b7f4552433732313a207472616e736665722066726f6d20696e636f72726563742060008201527f6f776e6572000000000000000000000000000000000000000000000000000000602082015250565b7f4552433732313a20746f6b656e20616c7265616479206d696e74656400000000600082015250565b7f4552433732313a207472616e7366657220746f20746865207a65726f2061646460008201527f7265737300000000000000000000000000000000000000000000000000000000602082015250565b7f4552433732313a20617070726f766520746f2063616c6c657200000000000000600082015250565b7f534547554e44415f50414c415652410000000000000000000000000000000000600082015250565b7f3c2f746578743e3c2f7376673e00000000000000000000000000000000000000600082015250565b7f4552433732313a2061646472657373207a65726f206973206e6f74206120766160008201527f6c6964206f776e65720000000000000000000000000000000000000000000000602082015250565b7f5052494d454952415f50414c4156524100000000000000000000000000000000600082015250565b7f45524337323155524953746f726167653a2055524920736574206f66206e6f6e60008201527f6578697374656e7420746f6b656e000000000000000000000000000000000000602082015250565b7f227d000000000000000000000000000000000000000000000000000000000000600082015250565b7f4552433732313a206d696e7420746f20746865207a65726f2061646472657373600082015250565b7f54455243454952415f50414c4156524100000000000000000000000000000000600082015250565b7f7b226e616d65223a202200000000000000000000000000000000000000000000600082015250565b7f4552433732313a20696e76616c696420746f6b656e2049440000000000000000600082015250565b7f4552433732313a20617070726f76616c20746f2063757272656e74206f776e6560008201527f7200000000000000000000000000000000000000000000000000000000000000602082015250565b7f646174613a6170706c69636174696f6e2f6a736f6e3b6261736536342c000000600082015250565b7f4552433732313a20617070726f76652063616c6c6572206973206e6f7420746f60008201527f6b656e206f776e6572206f7220617070726f76656420666f7220616c6c000000602082015250565b7f222c20226465736372697074696f6e223a2022556d6120636f6c6563616f206160008201527f636c616d61646120652066616d6f7361206465204e465473206d61726176696c60208201527f686f736f732e222c2022696d616765223a2022646174613a696d6167652f737660408201527f672b786d6c3b6261736536342c00000000000000000000000000000000000000606082015250565b6140f681613a00565b811461410157600080fd5b50565b61410d81613a12565b811461411857600080fd5b50565b61412481613a1e565b811461412f57600080fd5b50565b61413b81613a6a565b811461414657600080fd5b5056fe556d204e465420636f6d20494420257320666f692063756e6861646f20706172612025734142434445464748494a4b4c4d4e4f505152535455565758595a6162636465666768696a6b6c6d6e6f707172737475767778797a303132333435363738392b2fa26469706673582212208e4ae3594afbf95fc10c2a486c2d2e802cc5e2a412087d99b92acb0680e1d50e64736f6c634300080100333c7376672020786d6c6e733d27687474703a2f2f7777772e77332e6f72672f323030302f7376672720207072657365727665417370656374526174696f3d27784d696e594d696e206d65657427202076696577426f783d273020302033353020333530273e20203c646566733e202020203c6c696e6561724772616469656e742069643d274772616469656e7431273e2020202020203c73746f7020636c6173733d2773746f703127206f66667365743d273025272f3e2020202020203c73746f7020636c6173733d2773746f703227206f66667365743d27353025272f3e2020202020203c73746f7020636c6173733d2773746f703327206f66667365743d2731303025272f3e202020203c2f6c696e6561724772616469656e743e20203c2f646566733e20203c7374796c653e202020202e62617365207b20202020202066696c6c3a20626c75653b202020202020666f6e742d66616d696c793a2073657269663b202020202020666f6e742d73697a653a20323070783b202020202020636f6c6f723a20234646463b202020207d202020202e73746f7031207b2073746f702d636f6c6f723a20677265656e3b207d202020202e73746f7032207b2073746f702d636f6c6f723a2077686974653b2073746f702d6f7061636974793a20303b207d202020202e73746f7033207b2073746f702d636f6c6f723a2079656c6c6f773b207d2020202020203c2f7374796c653e20203c726563742077696474683d273130302527206865696768743d2731303025272066696c6c3d2775726c28234772616469656e74312927202f3e20203c7465787420202020783d273530252720202020793d273530252720202020636c6173733d27626173652720202020646f6d696e616e742d626173656c696e653d276d6964646c652720202020746578742d616e63686f723d276d6964646c652720203e",
  "linkReferences": {},
  "deployedLinkReferences": {}
}